:100000000C9476000C949E000C949E000C949E0020
:100010000C949E000C949E000C949E000C949E00E8
:100020000C949E000C949E000C949E000C949E00D8
:100030000C949E000C949E000C949E000C949E00C8
:100040000C94DD040C949E000C94AB040C94850479
:100050000C949E000C949E000C949E000C949E00A8
:100060000C9427050C949E008B07A007A0079F0700
:10007000A0077D07A007A007A0077F07A007A0078C
:1000800092079D079B07A007A007A007990730329A
:100090003A30353A303600417072203234203230F6
:1000A00031370000000000250028002B0004040464
:1000B0000404040404020202020202030303030311
:1000C00003010204081020408001020408102001EE
:1000D00002040810200000000800020100000304D0
:1000E00007000000000000000000550611241FBE9C
:1000F000CFEFD8E0DEBFCDBF12E0A0E0B1E0E2EF8D
:10010000F3E102C005900D92A23CB107D9F726E0B9
:10011000A2ECB2E001C01D92AD30B207E1F710E0F1
:10012000C6E7D0E004C02197FE010E947409C537DC
:10013000D107C9F70E948E060C94F7090C940000B1
:10014000382F2091610590916005213208F049C057
:1001500080913D058111FCCF42E040933D053093F5
:100160003C053FEF30933B0510923A05209339054B
:10017000A0E4B5E049E155E0FA013E2F341B321707
:1001800018F43D913193F9CF10921805209118057C
:10019000990F922B9093180590911705913061F467
:1001A00010921705909118059093BB009091BC0098
:1001B00093FDF8CF95EC01C095EE9093BC00909123
:1001C0003D059230E1F390913B059F3F79F080919E
:1001D0003B05803241F080913B05803331F084E073
:1001E00005C081E003C082E001C083E010923F05BA
:1001F0001092610510923E05089590E0FC01EB52CB
:10020000FF4F2491FC01EF53FF4F3491FC01E35564
:10021000FF4FE491EE23B1F1222339F1233091F025
:1002200038F42130A9F0223001F584B58F7D12C059
:10023000273091F02830A1F02430B9F4809180006B
:100240008F7D03C0809180008F77809380000DC0E8
:1002500084B58F7784BD09C08091B0008F7703C0CB
:100260008091B0008F7D8093B000F0E0EE0FFF1F13
:10027000ED55FF4FA591B4918FB7F894EC913E2BBB
:100280003C938FBF0895CF92DF92EF92FF920F932E
:100290001F93CF93DF936C017A018B01C0E0D0E014
:1002A000CE15DF0589F0D8016D918D01D601ED9154
:1002B000FC910190F081E02DC6010995892B11F484
:1002C0007E0102C02196ECCFC701DF91CF911F9133
:1002D0000F91FF90EF90DF90CF900895FC01918DEA
:1002E000828D981761F0828DDF01A80FB11D5D9698
:1002F0008C91928D9F5F9F73928F90E008958FEF06
:100300009FEF0895FC01918D828D981731F0828DB9
:10031000E80FF11D858D90E008958FEF9FEF089510
:10032000FC01918D228D892F90E0805C9F4F821B74
:1003300091098F739927089582E695E00E949001B4
:1003400021E0892B09F420E0822F0895FC01848D9F
:10035000DF01A80FB11DA35ABF4F2C91848D90E0EF
:1003600001968F739927848FA689B7892C93A089CA
:10037000B1898C9180648C93938D848D981306C081
:100380000288F389E02D80818F7D80830895EF922C
:10039000FF920F931F93CF93DF93EC0181E0888F3F
:1003A0009B8D8C8D981305C0E889F989808185FD26
:1003B00024C0F62E0B8D10E00F5F1F4F0F73112717
:1003C000E02E8C8DE8120CC00FB607FCFACFE8893E
:1003D000F989808185FFF5CFCE010E94A601F1CF7A
:1003E0008B8DFE01E80FF11DE35AFF4FF0820B8F5A
:1003F000EA89FB898081806207C0EE89FF8960837A
:10040000E889F98980818064808381E090E0DF91D0
:10041000CF911F910F91FF90EF900895CF93DF93AD
:10042000EC01888D8823C9F0EA89FB89808185FDEC
:1004300005C0A889B9898C9186FD0FC00FB607FC4D
:10044000F5CF808185FFF2CFA889B9898C9185FF8E
:10045000EDCFCE010E94A601E7CFDF91CF910895A5
:1004600080E090E0892B29F00E949C0181110C947E
:10047000000008953FB7F89480910F039091100306
:10048000A0911103B091120326B5A89B05C02F3F80
:1004900019F00196A11DB11D3FBFBA2FA92F982FAA
:1004A0008827820F911DA11DB11DBC01CD0142E025
:1004B000660F771F881F991F4A95D1F70895FC0191
:1004C000908190539A3008F090E0818180532AE027
:1004D000929F800D1124089585ED8093BC0080913A
:1004E000BC0084FDFCCF10923D0508954091E502CB
:1004F000262F30E0240F311D21323105DCF420910C
:100500003D052430C9F4FC0180E090E0861758F4E2
:100510003091E5022191DC01AD53BD4FA30FB11D18
:100520002C930196F3CF8091E502680F6093E5026A
:1005300080E0089581E0089582E008950895E091B3
:10054000F6048091F504E81730F4F0E0E950FB4F31
:10055000808190E008958FEF9FEF08959091F604C9
:100560008091F504981750F4E92FF0E0E950FB4F23
:10057000208130E09F5F9093F60402C02FEF3FEFA1
:10058000C90108958091F50490E02091F604821B42
:1005900091090895CF92DF92EF92FF920F931F93EC
:1005A000CF93DF937C01262F972F8A0180913E0500
:1005B000882391F0C62FD72F6E01C40ED51ECC15FF
:1005C000DD0571F06991D701ED91FC910190F08109
:1005D000E02DC7010995F3CF642F822F0E94760288
:1005E000C801DF91CF911F910F91FF90EF90DF90A5
:1005F000CF900895CF93DF931F92CDB7DEB7698375
:1006000020913E052223D1F020916105203240F057
:1006100021E030E0FC013383228380E090E015C0CC
:1006200080913F05E82FF0E0E05CFA4F99819083DC
:100630008F5F80933F058093610505C061E0CE0127
:1006400001960E94760281E090E00F90DF91CF91B9
:100650000895009769F0FC0101900020E9F73197B7
:10066000AF01481B590BBC0182E695E00C94430195
:1006700080E090E008958F929F92AF92BF920F9387
:100680001F93CF93DF93CDB7DEB7A1970FB6F89442
:10069000DEBF0FBECDBF19A2423008F44AE08E0182
:1006A0000F5D1F4F842E912CA12CB12CA50194011C
:1006B0000E945209E62FB901CA0101501109EA301E
:1006C00014F4E05D01C0E95CD801EC93232B242BEA
:1006D000252B61F7C8010E942903A1960FB6F89453
:1006E000DEBF0FBECDBFDF91CF911F910F91BF90A5
:1006F000AF909F908F900895CF92DF92EF92FF92EC
:10070000CF93DF936B017C01E0916205F09163056B
:100710000190F081E02D6DE282E695E00995EC0113
:1007200066277727CB016C197D098E099F094AE05E
:100730000E943B038C0F9D1FDF91CF91FF90EF90A4
:10074000DF90CF900895CF93DF930E942903EC01AF
:1007500080E291E00E9429038C0F9D1FDF91CF91D1
:1007600008951F93CF93DF9383E291E00E94A30348
:1007700082E695E00E949001892BD1F3D1E01FE140
:1007800082E695E00E94900118161906B4F5809152
:100790003304811132C082E695E00E946E01C82FB9
:1007A00085E491E00E94A303CE33C1F08BE291E097
:1007B0000E94A3039091C202E92FF0E0ED50FC4F9C
:1007C000C08381E0890F8093C2028032C8F283E344
:1007D00091E00E94A3031093C202D2CF8BE391E079
:1007E0000E94A303E091C202F0E0ED50FC4F1082A2
:1007F0001092C202D0933304C3CFDF91CF911F91E7
:10080000089590913D059111FCCF813208F080E26E
:1008100091E090933D0590933C052FEF20933B058D
:1008200010923A05280F209339059093180590915E
:100830001805906D9093180590911705913061F40B
:1008400010921705909118059093BB009091BC00F1
:1008500093FDF8CF95EC01C095EE9093BC0090917C
:100860003D059130E1F390913A05981710F480918D
:100870003A05A9E1B5E027EF34E0F9019E2F921B7C
:10088000981718F49D919193F9CF1092F6048093E4
:10089000F5040895CF93DF93BC01990F880B990B52
:1008A00097FF03C00E947C0303C04AE00E943B0301
:1008B000EC0180E291E00E9429038C0F9D1FDF91E3
:1008C000CF9108950E947A09CF93DF93EC016DE4F4
:1008D00071E083E194E00E94AD09BC0183ED93E0F7
:1008E0000E947F096DE471E080E090E00E94AD0914
:1008F00025E0CC0FDD1F2A95E1F7BC01CE018B5C12
:100900009B4FDF91CF910C947F091F920F920FB6EE
:100910000F9211242F933F934F935F936F937F9385
:100920008F939F93AF93BF93EF93FF9382E695E0EE
:100930000E94A601FF91EF91BF91AF919F918F917E
:100940007F916F915F914F913F912F910F900FBECB
:100950000F901F9018951F920F920FB60F921124AF
:100960002F938F939F93EF93FF93E0917205F091F4
:1009700073058081E0917805F091790582FD12C0C0
:10098000908180917B058F5F8F7320917C0582170A
:1009900051F0E0917B05F0E0EE59FA4F958F80938E
:1009A0007B0501C08081FF91EF919F918F912F91E5
:1009B0000F900FBE0F901F9018951F920F920FB6B9
:1009C0000F9211242F933F938F939F93AF93BF93D5
:1009D00080910B0390910C03A0910D03B0910E0335
:1009E00030910A0323E0230F2D3720F40196A11D37
:1009F000B11D05C026E8230F0296A11DB11D20934D
:100A00000A0380930B0390930C03A0930D03B09300
:100A10000E0380910F0390911003A0911103B091E8
:100A200012030196A11DB11D80930F039093100333
:100A3000A0931103B0931203BF91AF919F918F9137
:100A40003F912F910F900FBE0F901F9018951F92FE
:100A50000F920FB60F9211242F933F934F935F93F2
:100A60006F937F938F939F93AF93BF93EF93FF9376
:100A70008091B900887F803609F49CC068F588327F
:100A800009F45BC090F4803109F454C038F4882331
:100A900009F4F6C0883009F44DC0F6C0883109F475
:100AA0004CC0803209F45DC0EFC0803409F468C0E6
:100AB00048F4803309F455C0883309F0E5C08093C9
:100AC0003B05D8C0803509F44FC0883509F45DC0B6
:100AD000883409F0D9C0D6C0883909F4C7C0A8F451
:100AE000883709F467C038F4883609F463C0803762
:100AF00009F460C0C9C0883809F4B8C0803909F465
:100B00005FC0803809F0C0C05BC0803B09F486C07C
:100B100038F4803A09F466C0883A09F47FC0B4C05A
:100B2000803C09F4A7C0883C09F4A4C0883B09F4C0
:100B30008AC0AAC08091180510C090913A05809192
:100B40003905981770F5E0913A0581E08E0F809392
:100B50003A05F0E0E75EFA4F80818093BB0085ECB8
:100B600086C080933B058EC0E0913A0581E08E0FF0
:100B700080933A058091BB00F0E0E75EFA4F8083F6
:100B800090913A05809139056EC0E0913A0581E077
:100B90008E0F80933A058091BB00F0E0E75EFA4F3C
:100BA000808380913C0581116DC081E080931705A1
:100BB00084EA61C083E080933D0510920903CFCFA2
:100BC00080910903803208F051C0E091090381E06F
:100BD0008E0F809309038091BB00F0E0E751FD4F39
:100BE0008083BDCF85EC8093BC0010923D05809141
:100BF0000903803230F4E0910903F0E0E751FD4F42
:100C000010826091090370E0E091E702F091E80240
:100C100089EE92E009951092090336C084E0809332
:100C20003D051092E6021092E502E091E302F09198
:100C3000E40209958091E502811105C081E080936D
:100C4000E5021092C302E091E60281E08E0F8093EC
:100C5000E602F0E0ED53FD4F80818093BB00909160
:100C6000E6028091E502981708F479CF85E8809331
:100C7000BC000AC085EC8093BC0010923D0504C006
:100C800010923B050E946C02FF91EF91BF91AF91D2
:100C90009F918F917F916F915F914F913F912F9194
:100CA0000F900FBE0F901F901895E2E6F5E01382AB
:100CB000128288EE93E0A0E0B0E084839583A6835F
:100CC000B78324E031E03183208325EC30E03587A1
:100CD000248724EC30E03787268720EC30E0318B06
:100CE000208B21EC30E0338B228B22EC30E0358BF3
:100CF000248B26EC30E0378B268B118E128E138ED0
:100D0000148EEFEFF5E01382128284839583A6831D
:100D1000B78384E191E0918380830895CF93DF933B
:100D2000CDB7DEB72C970FB6F894DEBF0FBECDBFA0
:100D3000789484B5826084BD84B5816084BD85B5B6
:100D4000826085BD85B5816085BD80916E008160C2
:100D500080936E0010928100809181008260809368
:100D6000810080918100816080938100809180006A
:100D70008160809380008091B10084608093B10095
:100D80008091B00081608093B00080917A0084608F
:100D900080937A0080917A00826080937A008091BB
:100DA0007A00816080937A0080917A0080688093D5
:100DB0007A001092C100E0917205F091730582E013
:100DC0008083E0916E05F0916F051082E0917005CF
:100DD000F09171058FEC808310927A05E091760591
:100DE000F091770586E08083E0917405F0917505B8
:100DF000808180618083E0917405F0917505808128
:100E000088608083E0917405F09175058081806829
:100E10008083E0917405F091750580818F7D8083DA
:100E20008FE491E00E94A3038BEA91E00E94A30368
:100E30008DED91E00E94A30387E092E00E94A3035E
:100E40001092F6041092F50410923F05109261057D
:100E500010923D0501E000933C051092170582E1D8
:100E60000E94FD0083E10E94FD008091B9008E7F09
:100E70008093B9008091B9008D7F8093B90088E498
:100E80008093B80085E48093BC0000933E0588E61B
:100E90008093600510923F051092610560E08FEF2E
:100EA00095E00E94FA0281E00E94A00081E090E0BB
:100EB0000E9401048FEF95E00E94AE0287FFC7C039
:100EC0004BE050E067E970E0CE0101960E94A40972
:100ED000CE010A960E945F02F82EE9814E2FEE0F96
:100EE000550B660B770BFA01E154F109E331F1057B
:100EF00038F5EC5CFF4F0C94740912E021C08A8134
:100F0000813639F08B818E3611F017E019C016E06A
:100F100017C011E015C08B81823711F018E010C0A6
:100F200014E00EC08B81823711F015E009C013E088
:100F300007C019E005C01AE003C01BE001C01CE0B7
:100F4000CE0105960E945F02E82E48E050E06EE870
:100F500070E0CE0101960E94A409CE0101960E9484
:100F60005F02D82ECE0104960E945F02C82ECE01E9
:100F700007960E945F02B82E81E080933E0588E6C6
:100F80008093600510923F051092610560E08FEF3D
:100F900095E00E94FA020AE08B2D602F0E9446091C
:100FA000482F880F480F440F642F6B0D8FEF95E08B
:100FB0000E94FA028C2D602F0E944609382F880F5C
:100FC000380F330F632F6C0D8FEF95E00E94FA02FC
:100FD0008D2D602F0E944609282F880F280F220F81
:100FE000622F6D0D8FEF95E00E94FA0260E08FEFA7
:100FF00095E00E94FA028E2D602F0E944609982FDC
:10100000880F980F990F692F6E0D8FEF95E00E9452
:10101000FA02812F602F0E944609682F660F860F03
:10102000880F682F610F8FEF95E00E94FA028F2DD5
:10103000602F0E944609682F660F680F660F6F0DBC
:101040008FEF95E00E94FA0281E00E94A000BB248D
:10105000B39438E6A32EB0923E05A092600510929C
:101060003F051092610560E08FEF95E00E94FA0263
:1010700081E00E94A00087E090E00E9401048FEFD1
:1010800095E00E94AE028FEF95E00E94AE028FEFD6
:1010900095E00E94AE028FEF95E00E94AE028FEFC6
:1010A00095E00E94AE028FEF95E00E94AE028FEFB6
:1010B00095E00E94AE020E94B1030E94B10380E05D
:1010C00090E00E944A0480913304882361F063EF2A
:1010D00073E083E194E00E947F0980E090E00E9449
:1010E00064041092330483ED93E00E9486098C011E
:1010F0008EE592E00E942903C8010E944A0401156E
:10110000110561F00130110509F096C025E3C22EEA
:1011100024E0D22E8601E12CF12C3DC080913404D4
:101120008823A1F193E1692E93E0792E730100E009
:1011300010E0C8010E94E109F70181937F010F5F70
:101140001F4F003C1105A9F7C12CD12C760186E672
:1011500092E00E9429034AE0C701B6010E943B03C6
:1011600086E792E00E942903C3010E94A303FFEFD8
:10117000CF1ADF0AEF0AFF0A20E2620E711C86E036
:10118000C816D104E104F10411F756C08BE792E0D0
:101190000E94A30351C00E94B1030E94B1030E94A8
:1011A000B103C7010E944A0480913304882309F1E6
:1011B00063EF73E083E194E00E947F09C7010E941E
:1011C00064048CE892E00E94290383ED93E00E947E
:1011D000A30388E992E00E942903C7010E944A0400
:1011E00089EA92E00E942903C8010E94A303109299
:1011F0003304EFEFEE1AFE0A005E1F4FF6E0EF1623
:10120000F10449F68FEA92E00E94A30300E010E0A7
:10121000F60161916F01C8016C870E94E1096C853C
:10122000681719F0C8010E94E9090F5F1F4F003CC1
:10123000110571F7B09234040E943A022B013C016F
:1012400088EBC82E8BE0D82EE12CF12C0E943A02BC
:10125000DC01CB0184199509A609B709883E9340A2
:10126000A105B10558F0F1E0CF1AD108E108F10865
:1012700028EE420E23E0521E611C711CC114D104E1
:10128000E104F10419F70E943002E5CE991B79E0E0
:1012900004C0991F961708F0961B881F7A95C9F706
:1012A00080950895A1E21A2EAA1BBB1BFD010DC05B
:1012B000AA1FBB1FEE1FFF1FA217B307E407F50706
:1012C00020F0A21BB30BE40BF50B661F771F881FE2
:1012D000991F1A9469F760957095809590959B0178
:1012E000AC01BD01CF010895EE0FFF1F0590F491F1
:1012F000E02D099481E090E0F8940C94F709FB014B
:10130000DC0101900D920020E1F70895FC0188278F
:101310009927E89421912032E9F3293010F02E30FA
:10132000C8F32B3241F02D3239F4689404C00E9486
:10133000D909820F911D219120532A30C0F31EF448
:10134000909581959F4F0895FB01DC0102C00590A7
:101350000D9241505040D8F708954BE056E00E945E
:10136000B2090895FA01A191B081009719F410977C
:10137000E1F0CD01DC01CD010D90002011F4C001A0
:1013800013C0FB012191222319F02015D9F7F3CFC7
:10139000FB012191201519F41E92119606C02223FB
:1013A000C1F70D900020A1F7D001FA01A193B083FD
:1013B00008957AE0979F902D879F802D910D11249D
:1013C0000895F999FECF92BD81BDF89A992780B50D
:1013D0000895262FF999FECF1FBA92BD81BD20BD79
:1013E0000FB6F894FA9AF99A0FBE01960895F894F8
:0213F000FFCF2D
:1013F20000000000C701430190016E0182010E024C
:1014020000000000FA02CA02C202AE029F029E025D
:101412000D0A004465627567203100446562756794
:101422002033004465627567203400446562756745
:1014320020656E640044656275672032002C0043AB
:101442006F646520697320666F72207265616469DA
:101452006E6720616E642077726974696E672073AB
:1014620063686564756C6520746F20746865204DCF
:101472006963726F636F6E74726F6C6C65722061F8
:101482006E6420636F6E6669677572696E67207439
:10149200686520616C61726D732E00446174612015
:1014A20069732073656E742066726F6D207468654F
:1014B2002061707020696E2074686520666F6C6CA4
:1014C2006F77696E6720666F726D61740028303ABB
:1014D200526561642F313A5772697465202C203C41
:1014E20054696D65206F6620746865206461792097
:1014F2006269743E20290020436F6E6669677572C7
:1015020061626C652074696D657320617265203A51
:101512000A315D204D6F726E696E670A325D20413D
:10152200667465726E6F6F6E0A335D204E6967680E
:10153200740A345D2054776F2054696D65730A35DF
:101542005D2054687265652054696D657300436F50
:101552006D6D616E64004D65646963696E65206ED0
:10156200756D6265720054696D65005363686564E8
:10157200756C65206E6F74207365740052656164CA
:101582002F577269746520004D65646963696E65E1
:10159200204E756D626572200054696D65200044AD
:1015A2006F6E6520476574205363686564756C656A
:0215B200000037
:00000001FF
